{
  "_format": "hh-sol-artifact-1",
  "contractName": "ComplianceContract",
  "sourceName": "contracts/ComplianceContract.sol",
  "abi": [
    {
      "inputs": [],
      "stateMutability": "nonpayable",
      "type": "constructor"
    },
    {
      "anonymous": false,
      "inputs": [
        {
          "indexed": true,
          "internalType": "address",
          "name": "driver",
          "type": "address"
        },
        {
          "indexed": false,
          "internalType": "uint256",
          "name": "amount",
          "type": "uint256"
        }
      ],
      "name": "TokenReward",
      "type": "event"
    },
    {
      "inputs": [
        {
          "internalType": "address",
          "name": "driverAddress",
          "type": "address"
        }
      ],
      "name": "checkCompliance",
      "outputs": [],
      "stateMutability": "nonpayable",
      "type": "function"
    },
    {
      "inputs": [
        {
          "internalType": "address",
          "name": "",
          "type": "address"
        }
      ],
      "name": "contractInfo",
      "outputs": [
        {
          "internalType": "int256",
          "name": "targetLongitude",
          "type": "int256"
        },
        {
          "internalType": "int256",
          "name": "targetLatitude",
          "type": "int256"
        },
        {
          "internalType": "uint256",
          "name": "radius",
          "type": "uint256"
        },
        {
          "internalType": "uint256",
          "name": "duration",
          "type": "uint256"
        },
        {
          "internalType": "uint256",
          "name": "startTime",
          "type": "uint256"
        },
        {
          "internalType": "bool",
          "name": "compliant",
          "type": "bool"
        }
      ],
      "stateMutability": "view",
      "type": "function"
    },
    {
      "inputs": [
        {
          "internalType": "address",
          "name": "",
          "type": "address"
        }
      ],
      "name": "driverName",
      "outputs": [
        {
          "internalType": "string",
          "name": "",
          "type": "string"
        }
      ],
      "stateMutability": "view",
      "type": "function"
    },
    {
      "inputs": [],
      "name": "owner",
      "outputs": [
        {
          "internalType": "address",
          "name": "",
          "type": "address"
        }
      ],
      "stateMutability": "view",
      "type": "function"
    },
    {
      "inputs": [
        {
          "internalType": "address",
          "name": "driverAddress",
          "type": "address"
        },
        {
          "internalType": "string",
          "name": "name",
          "type": "string"
        },
        {
          "internalType": "int256",
          "name": "targetLongitude",
          "type": "int256"
        },
        {
          "internalType": "int256",
          "name": "targetLatitude",
          "type": "int256"
        },
        {
          "internalType": "uint256",
          "name": "radius",
          "type": "uint256"
        },
        {
          "internalType": "uint256",
          "name": "duration",
          "type": "uint256"
        }
      ],
      "name": "registerDriver",
      "outputs": [],
      "stateMutability": "nonpayable",
      "type": "function"
    },
    {
      "inputs": [
        {
          "internalType": "int256",
          "name": "currentLongitude",
          "type": "int256"
        },
        {
          "internalType": "int256",
          "name": "currentLatitude",
          "type": "int256"
        }
      ],
      "name": "sendCurrentLocation",
      "outputs": [],
      "stateMutability": "nonpayable",
      "type": "function"
    },
    {
      "inputs": [
        {
          "internalType": "int256",
          "name": "x",
          "type": "int256"
        }
      ],
      "name": "sqrt",
      "outputs": [
        {
          "internalType": "int256",
          "name": "y",
          "type": "int256"
        }
      ],
      "stateMutability": "pure",
      "type": "function"
    },
    {
      "inputs": [],
      "name": "token",
      "outputs": [
        {
          "internalType": "contract MyToken",
          "name": "",
          "type": "address"
        }
      ],
      "stateMutability": "view",
      "type": "function"
    }
  ],
  "bytecode": "0x608060405234801561001057600080fd5b5060038054336001600160a01b03199182168117909255600280549091169091179055610be7806100426000396000f3fe608060405234801561001057600080fd5b50600436106100885760003560e01c8063b17d0ed71161005b578063b17d0ed714610117578063b429a01a1461012a578063e11eb98d1461013d578063fc0c546a146101b257600080fd5b80632af18c2a1461008d5780632c289dcf146100b6578063665df460146100cb5780638da5cb5b146100ec575b600080fd5b6100a061009b36600461078f565b6101c5565b6040516100ad91906107f7565b60405180910390f35b6100c96100c436600461078f565b61025f565b005b6100de6100d936600461080a565b6103fe565b6040519081526020016100ad565b6003546100ff906001600160a01b031681565b6040516001600160a01b0390911681526020016100ad565b6100c9610125366004610839565b610457565b6100c961013836600461091e565b610535565b61018361014b36600461078f565b600060208190529081526040902080546001820154600283015460038401546004850154600590950154939492939192909160ff1686565b6040805196875260208701959095529385019290925260608401526080830152151560a082015260c0016100ad565b6002546100ff906001600160a01b031681565b600160205260009081526040902080546101de90610940565b80601f016020809104026020016040519081016040528092919081815260200182805461020a90610940565b80156102575780601f1061022c57610100808354040283529160200191610257565b820191906000526020600020905b81548152906001019060200180831161023a57829003601f168201915b505050505081565b6003546001600160a01b031633146102ae5760405162461bcd60e51b815260206004820152600d60248201526c2737ba103a34329037bbb732b960991b60448201526064015b60405180910390fd5b6001600160a01b0381166000908152602081905260409020600381015460048201546102da919061098a565b4210156103225760405162461bcd60e51b8152602060048201526016602482015275111d5c985d1a5bdb881b9bdd0818dbdb5c1b195d195960521b60448201526064016102a5565b600581015460ff16156103ed5760025460405163a9059cbb60e01b81526001600160a01b03848116600483015260056024830181905292169063a9059cbb906044016020604051808303816000875af1158015610383573d6000803e3d6000fd5b505050506040513d601f19601f820116820180604052508101906103a791906109a3565b50826001600160a01b03167f395c411eb901f31b59d14e8279edd4fa68fbe920fad004145896160eaff413b4826040516103e391815260200190565b60405180910390a2505b600501805460ff1916600117905550565b600080600261040e8460016109c5565b61041891906109ed565b90508291505b818112156104515790508060028161043681866109ed565b61044091906109c5565b61044a91906109ed565b905061041e565b50919050565b6003546001600160a01b031633146104a15760405162461bcd60e51b815260206004820152600d60248201526c2737ba103a34329037bbb732b960991b60448201526064016102a5565b6040805160c0810182528581526020808201868152828401868152606084018681524260808601908152600160a087018181526001600160a01b038f16600090815280885289812098518955955188830155935160028801559151600387015551600486015590516005909401805460ff1916941515949094179093559190522061052c8682610a78565b50505050505050565b33600090815260208181526040918290208251808401909352600d83526c21bab93932b73a102a34b6b29d60991b91830191909152906105759042610678565b6105a66040518060400160405280600b81526020016a29ba30b93a102a34b6b29d60a91b8152508260040154610678565b6105d560405180604001604052806009815260200168223ab930ba34b7b71d60b91b8152508260030154610678565b806003015481600401546105e9919061098a565b42106106305760405162461bcd60e51b8152602060048201526016602482015275151a5b5948191d5c985d1a5bdb88195e18d95959195960521b60448201526064016102a5565b60006106468484846000015485600101546106c1565b905081600201548113156106615760058201805460ff191690555b60058201546106729060ff1661070a565b50505050565b6106bd828260405160240161068e929190610b38565b60408051601f198184030181529190526020810180516001600160e01b0316632d839cb360e21b17905261074e565b5050565b6000806106ce8487610b5a565b905060006106dc8487610b5a565b90506106ff6106eb8280610b81565b6106f58480610b81565b6100d991906109c5565b979650505050505050565b604051811515602482015261074b9060440160408051601f198184030181529190526020810180516001600160e01b03166332458eed60e01b17905261074e565b50565b61074b8160006a636f6e736f6c652e6c6f679050600080835160208501845afa505050565b80356001600160a01b038116811461078a57600080fd5b919050565b6000602082840312156107a157600080fd5b6107aa82610773565b9392505050565b6000815180845260005b818110156107d7576020818501810151868301820152016107bb565b506000602082860101526020601f19601f83011685010191505092915050565b6020815260006107aa60208301846107b1565b60006020828403121561081c57600080fd5b5035919050565b634e487b7160e01b600052604160045260246000fd5b60008060008060008060c0878903121561085257600080fd5b61085b87610773565b9550602087013567ffffffffffffffff8082111561087857600080fd5b818901915089601f83011261088c57600080fd5b81358181111561089e5761089e610823565b604051601f8201601f19908116603f011681019083821181831017156108c6576108c6610823565b816040528281528c60208487010111156108df57600080fd5b8260208601602083013760009281016020019290925250979a9799505050506040860135956060810135956080820135955060a0909101359350915050565b6000806040838503121561093157600080fd5b50508035926020909101359150565b600181811c9082168061095457607f821691505b60208210810361045157634e487b7160e01b600052602260045260246000fd5b634e487b7160e01b600052601160045260246000fd5b8082018082111561099d5761099d610974565b92915050565b6000602082840312156109b557600080fd5b815180151581146107aa57600080fd5b80820182811260008312801582168215821617156109e5576109e5610974565b505092915050565b600082610a0a57634e487b7160e01b600052601260045260246000fd5b600160ff1b821460001984141615610a2457610a24610974565b500590565b601f821115610a7357600081815260208120601f850160051c81016020861015610a505750805b601f850160051c820191505b81811015610a6f57828155600101610a5c565b5050505b505050565b815167ffffffffffffffff811115610a9257610a92610823565b610aa681610aa08454610940565b84610a29565b602080601f831160018114610adb5760008415610ac35750858301515b600019600386901b1c1916600185901b178555610a6f565b600085815260208120601f198616915b82811015610b0a57888601518255948401946001909101908401610aeb565b5085821015610b285787850151600019600388901b60f8161c191681555b5050505050600190811b01905550565b604081526000610b4b60408301856107b1565b90508260208301529392505050565b8181036000831280158383131683831282161715610b7a57610b7a610974565b5092915050565b80820260008212600160ff1b84141615610b9d57610b9d610974565b818105831482151761099d5761099d61097456fea2646970667358221220b41152f6d01bcd85abb84ec318e9592b4478e4ebabc60d23f92ece1c827ea07964736f6c63430008140033",
  "linkReferences": {},
  "deployedLinkReferences": {}
}